:040000000C942A0032
:100004000C9400000C9400000C9400000C9400006C
:100014000C9400000C9400000C9400000C9400005C
:100024000C9400000C9400000C9400000C9400004C
:100034000C9400000C9400000C9400000C9400003C
:100044000C9400000C9400000C9400000C9400002C
:10005400F894EE27ECBBF1E0FBBFEBBFE5BF8DE00E
:10006400A2E0BB27ED938A95E9F780E094E0A0E64F
:10007400ED930197E9F7EFE5EDBFE4E0EEBFC0E6ED
:10008400D1E00C944500E0E0EABBEBBBE7BBE8BB86
:10009400E4BBE5BBE0E1E1BBE0E0E2BBE3BFE2BF20
:1000A400ECBFE2E3EFBDEAE1EEBDE0E0EDBDECBDA7
:1000B400E1E0E7BDE4EFE6BDE0E0EBBDEABDE9BDAC
:1000C400E8BDE2BDE5BDE4BDE3BDE9BFE5BFE4BF16
:1000D400EAB9E0E8E8B9E0E4E7B9E4E8E6B9E0E081
:1000E400E0BFEDB9E6BFE9BDEAEFE8BDFFCFFFCF62
:00000001FF
